{
  "contractName": "Radio",
  "abi": [
    {
      "anonymous": false,
      "inputs": [
        {
          "indexed": false,
          "internalType": "address",
          "name": "nftContract",
          "type": "address"
        },
        {
          "indexed": false,
          "internalType": "uint256",
          "name": "tokenId",
          "type": "uint256"
        },
        {
          "indexed": false,
          "internalType": "address",
          "name": "seller",
          "type": "address"
        },
        {
          "indexed": false,
          "internalType": "address",
          "name": "owner",
          "type": "address"
        }
      ],
      "name": "NFTDeleted",
      "type": "event"
    },
    {
      "anonymous": false,
      "inputs": [
        {
          "indexed": false,
          "internalType": "address",
          "name": "nftContract",
          "type": "address"
        },
        {
          "indexed": false,
          "internalType": "uint256",
          "name": "tokenId",
          "type": "uint256"
        },
        {
          "indexed": false,
          "internalType": "address",
          "name": "seller",
          "type": "address"
        },
        {
          "indexed": false,
          "internalType": "address",
          "name": "owner",
          "type": "address"
        }
      ],
      "name": "NFTListed",
      "type": "event"
    },
    {
      "anonymous": false,
      "inputs": [
        {
          "indexed": false,
          "internalType": "address",
          "name": "nftContract",
          "type": "address"
        },
        {
          "indexed": false,
          "internalType": "uint256",
          "name": "tokenId",
          "type": "uint256"
        },
        {
          "indexed": false,
          "internalType": "address",
          "name": "seller",
          "type": "address"
        },
        {
          "indexed": false,
          "internalType": "address",
          "name": "owner",
          "type": "address"
        }
      ],
      "name": "NFTSold",
      "type": "event"
    },
    {
      "inputs": [
        {
          "internalType": "uint256",
          "name": "_tokenId",
          "type": "uint256"
        },
        {
          "internalType": "uint256",
          "name": "_heatCount",
          "type": "uint256"
        }
      ],
      "name": "giveHeat",
      "outputs": [],
      "stateMutability": "payable",
      "type": "function",
      "payable": true
    },
    {
      "inputs": [
        {
          "internalType": "uint256",
          "name": "_tokenId",
          "type": "uint256"
        }
      ],
      "name": "deleteNft",
      "outputs": [],
      "stateMutability": "nonpayable",
      "type": "function"
    },
    {
      "inputs": [
        {
          "internalType": "address",
          "name": "_nftContract",
          "type": "address"
        },
        {
          "internalType": "uint256",
          "name": "_tokenId",
          "type": "uint256"
        }
      ],
      "name": "listNft",
      "outputs": [],
      "stateMutability": "payable",
      "type": "function",
      "payable": true
    },
    {
      "inputs": [],
      "name": "getListedNfts",
      "outputs": [
        {
          "components": [
            {
              "internalType": "address",
              "name": "nftContract",
              "type": "address"
            },
            {
              "internalType": "uint256",
              "name": "tokenId",
              "type": "uint256"
            },
            {
              "internalType": "address payable",
              "name": "seller",
              "type": "address"
            },
            {
              "internalType": "address payable",
              "name": "owner",
              "type": "address"
            },
            {
              "internalType": "bool",
              "name": "listed",
              "type": "bool"
            },
            {
              "internalType": "uint256",
              "name": "heatCount",
              "type": "uint256"
            },
            {
              "internalType": "string",
              "name": "genre",
              "type": "string"
            }
          ],
          "internalType": "struct Radio.NFT[]",
          "name": "",
          "type": "tuple[]"
        }
      ],
      "stateMutability": "view",
      "type": "function",
      "constant": true
    },
    {
      "inputs": [],
      "name": "getMyNfts",
      "outputs": [
        {
          "components": [
            {
              "internalType": "address",
              "name": "nftContract",
              "type": "address"
            },
            {
              "internalType": "uint256",
              "name": "tokenId",
              "type": "uint256"
            },
            {
              "internalType": "address payable",
              "name": "seller",
              "type": "address"
            },
            {
              "internalType": "address payable",
              "name": "owner",
              "type": "address"
            },
            {
              "internalType": "bool",
              "name": "listed",
              "type": "bool"
            },
            {
              "internalType": "uint256",
              "name": "heatCount",
              "type": "uint256"
            },
            {
              "internalType": "string",
              "name": "genre",
              "type": "string"
            }
          ],
          "internalType": "struct Radio.NFT[]",
          "name": "",
          "type": "tuple[]"
        }
      ],
      "stateMutability": "view",
      "type": "function",
      "constant": true
    },
    {
      "inputs": [],
      "name": "getMyListedNfts",
      "outputs": [
        {
          "components": [
            {
              "internalType": "address",
              "name": "nftContract",
              "type": "address"
            },
            {
              "internalType": "uint256",
              "name": "tokenId",
              "type": "uint256"
            },
            {
              "internalType": "address payable",
              "name": "seller",
              "type": "address"
            },
            {
              "internalType": "address payable",
              "name": "owner",
              "type": "address"
            },
            {
              "internalType": "bool",
              "name": "listed",
              "type": "bool"
            },
            {
              "internalType": "uint256",
              "name": "heatCount",
              "type": "uint256"
            },
            {
              "internalType": "string",
              "name": "genre",
              "type": "string"
            }
          ],
          "internalType": "struct Radio.NFT[]",
          "name": "",
          "type": "tuple[]"
        }
      ],
      "stateMutability": "view",
      "type": "function",
      "constant": true
    }
  ],
  "bytecode": "0x608060405234801561001057600080fd5b506001600081905550611eca806100286000396000f3fe6080604052600436106100555760003560e01c8063047b07bf1461005a578063192027eb146100855780631f4cc4db146100a1578063414758d5146100cc5780638d6cb3fb146100e8578063f6b157a814610113575b600080fd5b34801561006657600080fd5b5061006f61013c565b60405161007c9190611632565b60405180910390f35b61009f600480360381019061009a91906116b1565b610501565b005b3480156100ad57600080fd5b506100b6610788565b6040516100c39190611632565b60405180910390f35b6100e660048036038101906100e191906116f1565b610bbf565b005b3480156100f457600080fd5b506100fd610cdf565b60405161010a9190611632565b60405180910390f35b34801561011f57600080fd5b5061013a60048036038101906101359190611731565b610fd9565b005b6060600061014a6002611253565b90506000805b828110156101ef573373ffffffffffffffffffffffffffffffffffffffff1660036000600184610180919061178d565b815260200190815260200160002060030160009054906101000a900473ffffffffffffffffffffffffffffffffffffffff1673ffffffffffffffffffffffffffffffffffffffff16036101dc5781806101d8906117c1565b9250505b80806101e7906117c1565b915050610150565b5060008167ffffffffffffffff81111561020c5761020b611809565b5b60405190808252806020026020018201604052801561024557816020015b6102326112d0565b81526020019060019003908161022a5790505b5090506000805b848110156104f6573373ffffffffffffffffffffffffffffffffffffffff166003600060018461027c919061178d565b815260200190815260200160002060030160009054906101000a900473ffffffffffffffffffffffffffffffffffffffff1673ffffffffffffffffffffffffffffffffffffffff16036104e357600360006001836102da919061178d565b81526020019081526020016000206040518060e00160405290816000820160009054906101000a900473ffffffffffffffffffffffffffffffffffffffff1673ffffffffffffffffffffffffffffffffffffffff1673ffffffffffffffffffffffffffffffffffffffff168152602001600182015481526020016002820160009054906101000a900473ffffffffffffffffffffffffffffffffffffffff1673ffffffffffffffffffffffffffffffffffffffff1673ffffffffffffffffffffffffffffffffffffffff1681526020016003820160009054906101000a900473ffffffffffffffffffffffffffffffffffffffff1673ffffffffffffffffffffffffffffffffffffffff1673ffffffffffffffffffffffffffffffffffffffff1681526020016003820160149054906101000a900460ff161515151581526020016004820154815260200160058201805461043490611867565b80601f016020809104026020016040519081016040528092919081815260200182805461046090611867565b80156104ad5780601f10610482576101008083540402835291602001916104ad565b820191906000526020600020905b81548152906001019060200180831161049057829003601f168201915b5050505050815250508383815181106104c9576104c8611898565b5b602002602001018190525081806104df906117c1565b9250505b80806104ee906117c1565b91505061024c565b508194505050505090565b610509611261565b8173ffffffffffffffffffffffffffffffffffffffff166323b872dd3330846040518463ffffffff1660e01b8152600401610546939291906118e5565b600060405180830381600087803b15801561056057600080fd5b505af1158015610574573d6000803e3d6000fd5b5050505061058260026112b0565b6040518060e001604052808373ffffffffffffffffffffffffffffffffffffffff1681526020018281526020013373ffffffffffffffffffffffffffffffffffffffff1681526020013073ffffffffffffffffffffffffffffffffffffffff16815260200160011515815260200160008152602001604051806020016040528060008152508152506003600083815260200190815260200160002060008201518160000160006101000a81548173ffffffffffffffffffffffffffffffffffffffff021916908373ffffffffffffffffffffffffffffffffffffffff1602179055506020820151816001015560408201518160020160006101000a81548173ffffffffffffffffffffffffffffffffffffffff021916908373ffffffffffffffffffffffffffffffffffffffff16021790555060608201518160030160006101000a81548173ffffffffffffffffffffffffffffffffffffffff021916908373ffffffffffffffffffffffffffffffffffffffff16021790555060808201518160030160146101000a81548160ff02191690831515021790555060a0820151816004015560c082015181600501908161073b9190611ac8565b509050507f232534bbd51d7cde87652214a8c8454ac134ea309ff79aed199c676bebca94b9828233306040516107749493929190611b9a565b60405180910390a16107846112c6565b5050565b606060006107966002611253565b90506000805b82811015610874573373ffffffffffffffffffffffffffffffffffffffff16600360006001846107cc919061178d565b815260200190815260200160002060020160009054906101000a900473ffffffffffffffffffffffffffffffffffffffff1673ffffffffffffffffffffffffffffffffffffffff1614801561084d57506003600060018361082d919061178d565b815260200190815260200160002060030160149054906101000a900460ff165b1561086157818061085d906117c1565b9250505b808061086c906117c1565b91505061079c565b5060008167ffffffffffffffff81111561089157610890611809565b5b6040519080825280602002602001820160405280156108ca57816020015b6108b76112d0565b8152602001906001900390816108af5790505b5090506000805b84811015610bb4573373ffffffffffffffffffffffffffffffffffffffff1660036000600184610901919061178d565b815260200190815260200160002060020160009054906101000a900473ffffffffffffffffffffffffffffffffffffffff1673ffffffffffffffffffffffffffffffffffffffff16148015610982575060036000600183610962919061178d565b815260200190815260200160002060030160149054906101000a900460ff165b15610ba15760036000600183610998919061178d565b81526020019081526020016000206040518060e00160405290816000820160009054906101000a900473ffffffffffffffffffffffffffffffffffffffff1673ffffffffffffffffffffffffffffffffffffffff1673ffffffffffffffffffffffffffffffffffffffff168152602001600182015481526020016002820160009054906101000a900473ffffffffffffffffffffffffffffffffffffffff1673ffffffffffffffffffffffffffffffffffffffff1673ffffffffffffffffffffffffffffffffffffffff1681526020016003820160009054906101000a900473ffffffffffffffffffffffffffffffffffffffff1673ffffffffffffffffffffffffffffffffffffffff1673ffffffffffffffffffffffffffffffffffffffff1681526020016003820160149054906101000a900460ff1615151515815260200160048201548152602001600582018054610af290611867565b80601f0160208091040260200160405190810160405280929190818152602001828054610b1e90611867565b8015610b6b5780601f10610b4057610100808354040283529160200191610b6b565b820191906000526020600020905b815481529060010190602001808311610b4e57829003601f168201915b505050505081525050838381518110610b8757610b86611898565b5b60200260200101819052508180610b9d906117c1565b9250505b8080610bac906117c1565b9150506108d1565b508194505050505090565b60006003600084815260200190815260200160002090508060030160149054906101000a900460ff16610c27576040517f08c379a0000000000000000000000000000000000000000000000000000000008152600401610c1e90611c3c565b60405180910390fd5b8060020160009054906101000a900473ffffffffffffffffffffffffffffffffffffffff1673ffffffffffffffffffffffffffffffffffffffff166108fc839081150290604051600060405180830381858888f19350505050610cbf576040517f08c379a0000000000000000000000000000000000000000000000000000000008152600401610cb690611ca8565b60405180910390fd5b81816004016000828254610cd3919061178d565b92505081905550505050565b60606000610ced6002611253565b90506000610cfb6001611253565b82610d069190611cc8565b905060008167ffffffffffffffff811115610d2457610d23611809565b5b604051908082528060200260200182016040528015610d5d57816020015b610d4a6112d0565b815260200190600190039081610d425790505b5090506000805b84811015610fce5760036000600183610d7d919061178d565b815260200190815260200160002060030160149054906101000a900460ff1615610fbb5760036000600183610db2919061178d565b81526020019081526020016000206040518060e00160405290816000820160009054906101000a900473ffffffffffffffffffffffffffffffffffffffff1673ffffffffffffffffffffffffffffffffffffffff1673ffffffffffffffffffffffffffffffffffffffff168152602001600182015481526020016002820160009054906101000a900473ffffffffffffffffffffffffffffffffffffffff1673ffffffffffffffffffffffffffffffffffffffff1673ffffffffffffffffffffffffffffffffffffffff1681526020016003820160009054906101000a900473ffffffffffffffffffffffffffffffffffffffff1673ffffffffffffffffffffffffffffffffffffffff1673ffffffffffffffffffffffffffffffffffffffff1681526020016003820160149054906101000a900460ff1615151515815260200160048201548152602001600582018054610f0c90611867565b80601f0160208091040260200160405190810160405280929190818152602001828054610f3890611867565b8015610f855780601f10610f5a57610100808354040283529160200191610f85565b820191906000526020600020905b815481529060010190602001808311610f6857829003601f168201915b505050505081525050838381518110610fa157610fa0611898565b5b60200260200101819052508180610fb7906117c1565b9250505b8080610fc6906117c1565b915050610d64565b508194505050505090565b610fe1611261565b60006003600083815260200190815260200160002090508060030160149054906101000a900460ff16611049576040517f08c379a000000000000000000000000000000000000000000000000000000000815260040161104090611c3c565b60405180910390fd5b3373ffffffffffffffffffffffffffffffffffffffff168160020160009054906101000a900473ffffffffffffffffffffffffffffffffffffffff1673ffffffffffffffffffffffffffffffffffffffff16146110db576040517f08c379a00000000000000000000000000000000000000000000000000000000081526004016110d290611d6e565b60405180910390fd5b60036000838152602001908152602001600020600080820160006101000a81549073ffffffffffffffffffffffffffffffffffffffff021916905560018201600090556002820160006101000a81549073ffffffffffffffffffffffffffffffffffffffff02191690556003820160006101000a81549073ffffffffffffffffffffffffffffffffffffffff02191690556003820160146101000a81549060ff021916905560048201600090556005820160006111989190611351565b50507f48359e48a1f5ed61bd9a9b6a18ff557528271bcb297f07813c282639197d138b8160000160009054906101000a900473ffffffffffffffffffffffffffffffffffffffff1682600101548360020160009054906101000a900473ffffffffffffffffffffffffffffffffffffffff168460030160009054906101000a900473ffffffffffffffffffffffffffffffffffffffff1660405161123f9493929190611de3565b60405180910390a1506112506112c6565b50565b600081600001549050919050565b6002600054036112a6576040517f08c379a000000000000000000000000000000000000000000000000000000000815260040161129d90611e74565b60405180910390fd5b6002600081905550565b6001816000016000828254019250508190555050565b6001600081905550565b6040518060e00160405280600073ffffffffffffffffffffffffffffffffffffffff16815260200160008152602001600073ffffffffffffffffffffffffffffffffffffffff168152602001600073ffffffffffffffffffffffffffffffffffffffff16815260200160001515815260200160008152602001606081525090565b50805461135d90611867565b6000825580601f1061136f575061138e565b601f01602090049060005260206000209081019061138d9190611391565b5b50565b5b808211156113aa576000816000905550600101611392565b5090565b600081519050919050565b600082825260208201905092915050565b6000819050602082019050919050565b600073ffffffffffffffffffffffffffffffffffffffff82169050919050565b6000611405826113da565b9050919050565b611415816113fa565b82525050565b6000819050919050565b61142e8161141b565b82525050565b600061143f826113da565b9050919050565b61144f81611434565b82525050565b60008115159050919050565b61146a81611455565b82525050565b600081519050919050565b600082825260208201905092915050565b60005b838110156114aa57808201518184015260208101905061148f565b60008484015250505050565b6000601f19601f8301169050919050565b60006114d282611470565b6114dc818561147b565b93506114ec81856020860161148c565b6114f5816114b6565b840191505092915050565b600060e083016000830151611518600086018261140c565b50602083015161152b6020860182611425565b50604083015161153e6040860182611446565b5060608301516115516060860182611446565b5060808301516115646080860182611461565b5060a083015161157760a0860182611425565b5060c083015184820360c086015261158f82826114c7565b9150508091505092915050565b60006115a88383611500565b905092915050565b6000602082019050919050565b60006115c8826113ae565b6115d281856113b9565b9350836020820285016115e4856113ca565b8060005b858110156116205784840389528151611601858261159c565b945061160c836115b0565b925060208a019950506001810190506115e8565b50829750879550505050505092915050565b6000602082019050818103600083015261164c81846115bd565b905092915050565b600080fd5b611662816113fa565b811461166d57600080fd5b50565b60008135905061167f81611659565b92915050565b61168e8161141b565b811461169957600080fd5b50565b6000813590506116ab81611685565b92915050565b600080604083850312156116c8576116c7611654565b5b60006116d685828601611670565b92505060206116e78582860161169c565b9150509250929050565b6000806040838503121561170857611707611654565b5b60006117168582860161169c565b92505060206117278582860161169c565b9150509250929050565b60006020828403121561174757611746611654565b5b60006117558482850161169c565b91505092915050565b7f4e487b7100000000000000000000000000000000000000000000000000000000600052601160045260246000fd5b60006117988261141b565b91506117a38361141b565b92508282019050808211156117bb576117ba61175e565b5b92915050565b60006117cc8261141b565b91507fffffffffffffffffffffffffffffffffffffffffffffffffffffffffffffffff82036117fe576117fd61175e565b5b600182019050919050565b7f4e487b7100000000000000000000000000000000000000000000000000000000600052604160045260246000fd5b7f4e487b7100000000000000000000000000000000000000000000000000000000600052602260045260246000fd5b6000600282049050600182168061187f57607f821691505b60208210810361189257611891611838565b5b50919050565b7f4e487b7100000000000000000000000000000000000000000000000000000000600052603260045260246000fd5b6118d0816113fa565b82525050565b6118df8161141b565b82525050565b60006060820190506118fa60008301866118c7565b61190760208301856118c7565b61191460408301846118d6565b949350505050565b60008190508160005260206000209050919050565b60006020601f8301049050919050565b600082821b905092915050565b60006008830261197e7fffffffffffffffffffffffffffffffffffffffffffffffffffffffffffffffff82611941565b6119888683611941565b95508019841693508086168417925050509392505050565b6000819050919050565b60006119c56119c06119bb8461141b565b6119a0565b61141b565b9050919050565b6000819050919050565b6119df836119aa565b6119f36119eb826119cc565b84845461194e565b825550505050565b600090565b611a086119fb565b611a138184846119d6565b505050565b5b81811015611a3757611a2c600082611a00565b600181019050611a19565b5050565b601f821115611a7c57611a4d8161191c565b611a5684611931565b81016020851015611a65578190505b611a79611a7185611931565b830182611a18565b50505b505050565b600082821c905092915050565b6000611a9f60001984600802611a81565b1980831691505092915050565b6000611ab88383611a8e565b9150826002028217905092915050565b611ad182611470565b67ffffffffffffffff811115611aea57611ae9611809565b5b611af48254611867565b611aff828285611a3b565b600060209050601f831160018114611b325760008415611b20578287015190505b611b2a8582611aac565b865550611b92565b601f198416611b408661191c565b60005b82811015611b6857848901518255600182019150602085019450602081019050611b43565b86831015611b855784890151611b81601f891682611a8e565b8355505b6001600288020188555050505b505050505050565b6000608082019050611baf60008301876118c7565b611bbc60208301866118d6565b611bc960408301856118c7565b611bd660608301846118c7565b95945050505050565b600082825260208201905092915050565b7f4e4654206973206e6f74206c6973746564000000000000000000000000000000600082015250565b6000611c26601183611bdf565b9150611c3182611bf0565b602082019050919050565b60006020820190508181036000830152611c5581611c19565b9050919050565b7f5472616e73666572206661696c65640000000000000000000000000000000000600082015250565b6000611c92600f83611bdf565b9150611c9d82611c5c565b602082019050919050565b60006020820190508181036000830152611cc181611c85565b9050919050565b6000611cd38261141b565b9150611cde8361141b565b9250828203905081811115611cf657611cf561175e565b5b92915050565b7f4f6e6c79207468652073656c6c65722063616e2064656c65746520746865204e60008201527f4654000000000000000000000000000000000000000000000000000000000000602082015250565b6000611d58602283611bdf565b9150611d6382611cfc565b604082019050919050565b60006020820190508181036000830152611d8781611d4b565b9050919050565b6000611da9611da4611d9f846113da565b6119a0565b6113da565b9050919050565b6000611dbb82611d8e565b9050919050565b6000611dcd82611db0565b9050919050565b611ddd81611dc2565b82525050565b6000608082019050611df860008301876118c7565b611e0560208301866118d6565b611e126040830185611dd4565b611e1f6060830184611dd4565b95945050505050565b7f5265656e7472616e637947756172643a207265656e7472616e742063616c6c00600082015250565b6000611e5e601f83611bdf565b9150611e6982611e28565b602082019050919050565b60006020820190508181036000830152611e8d81611e51565b905091905056fea26469706673582212206ec9254ec79ec06597c82ca97cfd5b4c7588583d9ca599fe2d2278baaf55822364736f6c63430008110033",
  "immutableReferences": {},
  "source": "// SPDX-License-Identifier: MIT\r\npragma solidity ^0.8.13;\r\n\r\nimport \"@openzeppelin/contracts/utils/Counters.sol\";\r\nimport \"@openzeppelin/contracts/token/ERC721/ERC721.sol\";\r\nimport \"@openzeppelin/contracts/security/ReentrancyGuard.sol\";\r\n\r\ncontract Radio is ReentrancyGuard {\r\n    using Counters for Counters.Counter;\r\n    Counters.Counter private _nftsSold;\r\n    Counters.Counter private _nftCount;\r\n\r\n    mapping(uint256 => NFT) private _idToNFT;\r\n\r\n    struct NFT {\r\n        address nftContract;\r\n        uint256 tokenId;\r\n        address payable seller;\r\n        address payable owner;\r\n        bool listed;\r\n        uint256 heatCount;\r\n        string genre;\r\n    }\r\n\r\n    event NFTListed(\r\n        address nftContract,\r\n        uint256 tokenId,\r\n        address seller,\r\n        address owner\r\n    );\r\n\r\n    event NFTSold(\r\n        address nftContract,\r\n        uint256 tokenId,\r\n        address seller,\r\n        address owner\r\n    );\r\n\r\n    event NFTDeleted(\r\n        address nftContract,\r\n        uint256 tokenId,\r\n        address seller,\r\n        address owner\r\n    );\r\n\r\n    function giveHeat(uint256 _tokenId, uint256 _heatCount) public payable {\r\n        // Ensure that the NFT exists and is listed\r\n        NFT storage nft = _idToNFT[_tokenId];\r\n        require(nft.listed, \"NFT is not listed\");\r\n\r\n        // send the heat to the seller of the NFT\r\n        require(payable((nft.seller)).send(_heatCount), \"Transfer failed\"); // Increment the heatCount of the NFT by the given amount\r\n        nft.heatCount += _heatCount;\r\n    }\r\n\r\n    // function to send heat to the owner of the NFTs, respectivly\r\n\r\n    function deleteNft(uint256 _tokenId) public nonReentrant {\r\n        // Ensure that the NFT exists and is listed\r\n        NFT storage nft = _idToNFT[_tokenId];\r\n        require(nft.listed, \"NFT is not listed\");\r\n\r\n        // Ensure that the seller of the NFT is the one calling this function\r\n        require(nft.seller == msg.sender, \"Only the seller can delete the NFT\");\r\n\r\n        // Remove the NFT from the marketplace\r\n        delete _idToNFT[_tokenId];\r\n\r\n        emit NFTDeleted(nft.nftContract, nft.tokenId, nft.seller, nft.owner);\r\n    }\r\n\r\n    // List the NFT on the marketplace\r\n    function listNft(address _nftContract, uint256 _tokenId)\r\n        public\r\n        payable\r\n        nonReentrant\r\n    {\r\n        IERC721(_nftContract).transferFrom(msg.sender, address(this), _tokenId);\r\n\r\n        _nftCount.increment();\r\n\r\n        _idToNFT[_tokenId] = NFT(\r\n            _nftContract,\r\n            _tokenId,\r\n            payable(msg.sender),\r\n            payable(address(this)),\r\n            true,\r\n            0,\r\n            \"\"\r\n        );\r\n\r\n        emit NFTListed(_nftContract, _tokenId, msg.sender, address(this));\r\n    }\r\n\r\n    function getListedNfts() public view returns (NFT[] memory) {\r\n        uint256 nftCount = _nftCount.current();\r\n        uint256 unsoldNftsCount = nftCount - _nftsSold.current();\r\n\r\n        NFT[] memory nfts = new NFT[](unsoldNftsCount);\r\n        uint256 nftsIndex = 0;\r\n        for (uint256 i = 0; i < nftCount; i++) {\r\n            if (_idToNFT[i + 1].listed) {\r\n                nfts[nftsIndex] = _idToNFT[i + 1];\r\n                nftsIndex++;\r\n            }\r\n        }\r\n        return nfts;\r\n    }\r\n\r\n    function getMyNfts() public view returns (NFT[] memory) {\r\n        uint256 nftCount = _nftCount.current();\r\n        uint256 myNftCount = 0;\r\n        for (uint256 i = 0; i < nftCount; i++) {\r\n            if (_idToNFT[i + 1].owner == msg.sender) {\r\n                myNftCount++;\r\n            }\r\n        }\r\n\r\n        NFT[] memory nfts = new NFT[](myNftCount);\r\n        uint256 nftsIndex = 0;\r\n        for (uint256 i = 0; i < nftCount; i++) {\r\n            if (_idToNFT[i + 1].owner == msg.sender) {\r\n                nfts[nftsIndex] = _idToNFT[i + 1];\r\n                nftsIndex++;\r\n            }\r\n        }\r\n        return nfts;\r\n    }\r\n\r\n    function getMyListedNfts() public view returns (NFT[] memory) {\r\n        uint256 nftCount = _nftCount.current();\r\n        uint256 myListedNftCount = 0;\r\n        for (uint256 i = 0; i < nftCount; i++) {\r\n            if (\r\n                _idToNFT[i + 1].seller == msg.sender && _idToNFT[i + 1].listed\r\n            ) {\r\n                myListedNftCount++;\r\n            }\r\n        }\r\n\r\n        NFT[] memory nfts = new NFT[](myListedNftCount);\r\n        uint256 nftsIndex = 0;\r\n        for (uint256 i = 0; i < nftCount; i++) {\r\n            if (\r\n                _idToNFT[i + 1].seller == msg.sender && _idToNFT[i + 1].listed\r\n            ) {\r\n                nfts[nftsIndex] = _idToNFT[i + 1];\r\n                nftsIndex++;\r\n            }\r\n        }\r\n        return nfts;\r\n    }\r\n}\r\n",
  "sourcePath": "C:\\Users\\chris\\etherwav\\etherwav-deploy\\backend\\contracts\\Radio.sol",
  "compiler": {
    "name": "solc",
    "version": "0.8.17+commit.8df45f5f.Emscripten.clang"
  },
  "schemaVersion": "3.4.11",
  "updatedAt": "2023-02-14T03:42:21.257Z",
  "networkType": "ethereum",
  "devdoc": {
    "kind": "dev",
    "methods": {},
    "version": 1
  },
  "userdoc": {
    "kind": "user",
    "methods": {},
    "version": 1
  }
}